S019000033332D74726166666963206C69676874732E73726563EE
S11300000C942A000C9447000C9447000C9447006D
S11300100C9447000C9447000C9447000C94470040
S11300200C9447000C9447000C94E1020C94470094
S11300300C9447000C9447000C9447000C94470020
S11300400C9447000C9447000C9447000C94470010
S11300500C94470011241FBECFE5D8E0DEBFCDBF0E
S113006010E0A0E6B0E0E8E0F6E002C005900D92F2
S1130070A639B107D9F720E0A6E9B0E001C01D9286
S1130080A739B207E1F70E942E020C9402030C94E4
S11300900000823419F118F4813439F0089583345E
S11300A0B1F1843409F44CC00895413059F42AB3B1
S11300B081E090E002C0880F991F6A95E2F7822BD5
S11300C08ABB08952AB381E090E002C0880F991F8B
S11300D06A95E2F7809582238ABB0895413059F4EA
S11300E027B381E090E002C0880F991F6A95E2F778
S11300F0822B87BB089527B381E090E002C0880F6C
S1130100991F6A95E2F78095822387BB0895413051
S113011059F424B381E090E002C0880F991F6A95D6
S1130120E2F7822B84BB089524B381E090E002C0FF
S1130130880F991F6A95E2F78095822384BB0895FE
S1130140413059F421B381E090E002C0880F991F37
S11301506A95E2F7822B81BB089521B381E090E098
S113016002C0880F991F6A95E2F78095822381BBAC
S11301700895823419F118F4813439F008958334E0
S1130180B1F1843409F44CC00895413059F42BB3CF
S113019081E090E002C0880F991F6A95E2F7822BF4
S11301A08BBB08952BB381E090E002C0880F991FA8
S11301B06A95E2F7809582238BBB0895413059F408
S11301C028B381E090E002C0880F991F6A95E2F796
S11301D0822B88BB089528B381E090E002C0880F89
S11301E0991F6A95E2F78095822388BB0895413070
S11301F059F425B381E090E002C0880F991F6A95F5
S1130200E2F7822B85BB089525B381E090E002C01C
S1130210880F991F6A95E2F78095822385BB08951C
S1130220413059F422B381E090E002C0880F991F55
S11302306A95E2F7822B82BB089522B381E090E0B5
S113024002C0880F991F6A95E2F78095822382BBCA
S11302500895823459F018F4813431F008958334C8
S113026039F0843439F008956BBB089568BB089560
S113027065BB089562BB089541E060E082E40E949A
S1130280B9008FE99FE00197F1F700C0000040E05A
S113029060E082E40E94B9008FE99FE00197F1F7E2
S11302A000C000000895682F81E40E94290140E005
S11302B062E082E40E94B9000E943C018FEC97E066
S11302C00197F1F700C0000008952FEF81EE94E04C
S11302D0215080409040E1F700C0000041E060E020
S11302E081E40E94490041E061E081E40E94490008
S11302F041E062E081E40E94490041E063E081E47E
S11303000E94490041E064E081E40E94490041E028
S113031065E081E40E94490041E066E081E40E94D6
S1130320490041E067E081E40E94490041E060E067
S113033082E40E94490041E061E082E40E944900B5
S113034041E062E082E40E94490040E061E082E42E
S11303500E94B90088E30E9453018FEC97E0019753
S1130360F1F700C000008CE00E9453018FEC97E08D
S11303700197F1F700C0000081E00E9453018FE172
S11303809EE40197F1F700C0000086E00E9453014B
S11303908FEC97E00197F1F700C000000895682FF3
S11303A081E40E94290141E062E082E40E94B900F4
S11303B00E943C018FEC97E00197F1F700C0000028
S11303C00895CF93DF93EC0103C00E94CF012196DF
S11303D088818111FACFDF91CF91089581E00E9445
S11303E053018FE19EE40197F1F700C000000895E6
S11303F09FEF980F923070F4613170F4662371F0BE
S1130400813019F42FE7260F0AC0823041F42FEB14
S1130410260F05C020E803C020E801C020E8822F91
S11304200E9453018FEC97E00197F1F700C00000A0
S1130430089570E041E050E090E00E944900089582
S113044070E041E050E090E00E94B900089570E04F
S113045040E050E090E00E94B90008950E946501D8
S113046060E084E40E94190261E084E40E941902BD
S113047062E084E40E9419020E94F2028AE08093FE
S1130480620085E08093610087E0809360000E94B1
S1130490EE0183E690E00E94E10160E084E40E94C2
S11304A0200217C080919600843698F0109296002E
S11304B0809162008150809362006BE081E00E9431
S11304C0F80180E20E94CF0180916200805D0E9469
S11304D0CF01809162008111E5CF2FE986E891E098
S11304E0215080409040E1F700C0000060E084E4C7
S11304F00E94270261E084E40E9420020E94EE012F
S113050084E790E00E94E10117C080919600843650
S113051098F0109296008091610081508093610060
S11305206BE081E00E94F80180E20E94CF0180919B
S11305306100805D0E94CF01809161008111E5CF4F
S11305402FE986E891E0215080409040E1F700C017
S1130550000061E084E40E94270262E084E40E94D7
S113056020020E94EE0185E890E00E94E10117C09C
S113057080919600843698F01092960080916000E5
S11305808150809360006BE081E00E94F80180E27A
S11305900E94CF0180916000805D0E94CF01809114
S11305A060008111E5CF2FE986E891E02150804079
S11305B09040E1F700C0000062E084E40E9427025A
S11305C05DCF1F920F920FB60F9211248F938091DB
S11305D096008F5F809396008F910F900FBE0F90BF
S11305E01F90189583B7886083BF8EE48CBF83B750
S11305F0816083BF83B7846083BF789489B7826046
S10B060089BF0895F894FFCFAF
S113060807050A72656D61696E696E67203130206D
S11306187365630072656D61696E696E6720203564
S1130628207365630072656D61696E696E67202069
S109063837207365630026
S9030000FC
